:100000000C9471020C94A2020C94A2020C94A20211
:100010000C94A2020C94A2020C94A2020C94A202D0
:100020000C94A2020C94A2020C94A2020C94A202C0
:100030000C94A2020C94A2020C94A2020C94A202B0
:100040000C94A2020C94A2020C94A2020C94A202A0
:100050000C94A2020C94A2020C94A2020C948D3A6D
:100060000C94A2020C947C370C9452370C94A2028C
:100070000C94A2020C94A2020C94A2020C94A20270
:100080000C94A2020C94A2020C94A2020C94A20260
:100090000C94A2020C94A2020C94A2020C94FB3CBD
:1000A0000C94A2020C94A2020C94A2020C94A20240
:1000B0000C94A2020C94A2020C94A2020C94A20230
:1000C0000C94A2020C94A2020C94A2020C94A20220
:1000D0000C94A2020C94A2020C94A2020C94A20210
:1000E0000C94A202431A5B1AC71AB81BD81BF81B40
:1000F000001CAD1B702F732F622F662F6C2FAA2F41
:10010000772F7B2F812F852F892F8F2F932F972F3D
:10011000AA2F9D2FA12FA52F49314E3153315D318B
:100120006731E0317131793181318B3195319F31D6
:10013000AE31B831E031C231CC31D6310C947835A2
:100140000C94D7210C944D250C94E9210C94F81BA8
:100150000C945B1A0C941D350C94593B0C949531FE
:100160000C94812F0C94C93B0C94AA2F0C944E3103
:100170000C94D6290C947B3E0C94AD2A0C94242F1D
:100180000C94FE280C9481310C945A3A0C944A3BFE
:100190000C94A52F0C9434220C94493B0C94A0365B
:1001A0000C9487280C949D2F0C94483B0C94732F2F
:1001B0000C9457290C94FB210C94702F0C94D12B88
:1001C0000C94BB210C94C71A0C947B2F0C946D3BA0
:1001D0000C943B2C0C94972F0C9424290C94CF2A2C
:1001E0000C94FD350C94662F0C94F4370C94852FE9
:1001F0000C94CA290C9473220C946C2F0C94E0314B
:100200000C94CC310C94B0350C94431A0C945331AB
:100210000C9456350C94CA3B0C940D3B0C94AE31A7
:100220000C9463250C945E290C949A3B0C947131C8
:100230000C94842C0C9460290C949F310C94772F8F
:100240000C948F2F0C94473B0C94CF270C94D631F1
:100250000C945E2D0C9480250C9467310C944931DC
:100260000C9405220C9447350C94D81B0C94872AC7
:100270000C94622F0C949A220C94152A0C94B83189
:100280000C945D310C948B310C94892F0C94AD1B24
:100290000C9479310C94932F0C94A12F0C94B81BCF
:1002A0000C94CA270C94001C0C947A2C0C94EE2805
:1002B0000C946A350C9441290C94C2310C94F329A6
:1002C000000020002300260029002C002F0032000F
:1002D00000010000030106010901050505050705E8
:1002E00008080808020202020A0A080804040404B2
:1002F00001010101010101010303030303030303DE
:10030000040707070C0C0C0C0C0C0C0C020202026C
:1003100006060606060606060B0B0B0B0B0B0B0B55
:100320000102102020080810204010204080020107
:1003300002010804020101020408102040808040EC
:1003400020100804020180040201804020100804EB
:100350000201080402010102040810204080010289
:1003600004081020408000002100240027002A00FB
:100370002D003000330001010000040107010A01D3
:1003800000002200250028002B002E003100340040
:1003900002010000050108010B0100000A0B02091F
:1003A0000C0D0E080703040100000000000000000F
:1003B000000000000000000000000000000000003D
:1003C00000000000000012111000000000000000FA
:1003D000000000000000000000000000000000001D
:1003E000005EBCE2613FDD83C29C7E20A3FD1F4115
:1003F0009DC3217FFCA2401E5F01E3BD3E6082DC05
:10040000237D9FC1421CFEA0E1BF5D0380DE3C62F4
:10041000BEE0025CDF81633D7C22C09E1D43A1FFE4
:100420004618FAA427799BC584DA3866E5BB5907D4
:10043000DB856739BAE406581947A5FB7826C49AC4
:10044000653BD987045AB8E6A7F91B45C6987A24B4
:10045000F8A6441A99C7257B3A6486D85B05E7B9A4
:100460008CD2306EEDB3510F4E10F2AC2F7193CD94
:10047000114FADF3702ECC92D38D6F31B2EC0E5084
:10048000AFF1134DCE90722C6D33D18F0C52B0EE74
:10049000326C8ED0530DEFB1F0AE4C1291CF2D7364
:1004A000CA947628ABF517490856B4EA6937D58B54
:1004B0005709EBB536688AD495CB2977F4AA481644
:1004C000E9B7550B88D6346A2B7597C94A14F6A834
:1004D000742AC896154BA9F7B6E80A54D7896B3524
:1004E0007B3E11241FBECFEFD1E2DEBFCDBF00E0C7
:1004F0000CBF13E1A0E0B2E0EAECFFE800E00BBFC4
:1005000002C007900D92AE3EB107D9F729E1AEEED9
:10051000B3E101C01D92A439B207E1F712E0C1E7CF
:10052000D2E000E006C021970109802FFE010E9461
:100530009745C037D10780E00807A9F70E94C83F58
:100540000C94E3470C9400008F929F92AF92BF925D
:10055000CF92DF92EF92FF920F931F93CF93DF938F
:10056000CDB7DEB7A1970FB6F894DEBF0FBECDBFF3
:100570000E94813A6B017C016093291470932A14C4
:1005800080932B1490932C148BE10E949030209137
:100590002814222339F0892B29F41092281481E0A1
:1005A000809327148FE10E949030209126142223FB
:1005B00031F0892B21F41092261410922714809187
:1005C0002814882311F061E001C060E088E00E94F7
:1005D000B93080912614882311F061E001C060E0F9
:1005E00086E00E94B93080912714811126C0809145
:1005F0002514811133C0209135193091361980911D
:100600002314909124142817390744F5809122145B
:10061000811124C080912114811120C020912D19B5
:1006200030912E1980911F149091201428173907AA
:10063000ACF481E08093281411C0209133193091DB
:10064000341980912314909124142817390734F019
:1006500080912214882311F40C946E148091181444
:10066000882329F061E082E00E94B9302DC060E06B
:1006700082E00E94B9308091161490911714209155
:10068000291930912A1982179307F4F02091141434
:100690003091151482179307BCF0809125148111B5
:1006A00013C020912D1930912E1980911F14909113
:1006B00020142817390744F480911114811119C0AE
:1006C00081E08093181415C020912B1930912C19BA
:1006D00080911214909113148217930754F0809113
:1006E0002514811106C080911F1490912014049745
:1006F0001CF780911814209125148823C1F0809153
:10070000291990912A1902974091161450911714A3
:100710004817590764F480912B1990912C1901976F
:1007200040911214509113144817590714F02223C2
:1007300069F080911114811102C0109218142223C3
:1007400029F061E084E00E94B9301AC060E084E0E2
:100750000E94B93020912F193091301980911214D4
:1007600090911314281739075CF08091221481119D
:1007700007C080911014811103C081E0809325147B
:10078000809125148823A9F02091311930913219D4
:1007900080911214909113142817390754F4809102
:1007A0002214811106C080911014811102C0109290
:1007B000251480910C1490910D14A0910E14B091F9
:1007C0000F14C81AD90AEA0AFB0A21E2C2162EE45B
:1007D000D206E104F10408F46CC080910B14882364
:1007E00061F18091091490910A148F3391057CF086
:1007F0008FE390E090930A148093091410920B14E5
:100800008FEF90E0909308148093071410C0FC01C0
:10081000EE0FFF1FE35CFD4F208131813093081400
:1008200020930714019690930A14809309148091E1
:100830000714909108140E94243180910614882393
:1008400041F18091091490910A14181619065CF070
:1008500010920A141092091410920614109208149F
:100860001092071410C0FC01EE0FFF1FE35CFD4F58
:1008700020813181309308142093071401979093BD
:100880000A148093091480910714909108140E940F
:1008900024318091291490912A14A0912B14B091A5
:1008A0002C1480930C1490930D14A0930E14B093F9
:1008B0000F14CE010F960E94673C882309F43FC0B5
:1008C000898990E040912519509126192091271986
:1008D0003091281984179507CCF082179307B4F448
:1008E00040912214411112C04091051441110EC0D3
:1008F00040910714509108144F3F51053CF440912A
:100900000B14411103C041E040930B14821793076D
:10091000B4F080912214811112C0809105148111CC
:100920000EC08091071490910814181619063CF413
:1009300080910614811103C081E08093061486E043
:100940000E949030892BE9F08091291490912A140B
:10095000A0912B14B0912C144091011450910214C9
:1009600060910314709104148C019D01041B150BFC
:10097000260B370B0F3111052105310510F00C94B2
:10098000AA1480910014882309F454C182E00E94C3
:100990009030892BE9F04091291450912A146091EC
:1009A0002B1470912C148091011490910214A09139
:1009B0000314B09104148A019B01081B190B2A0B24
:1009C0003B0B0F3111052105310510F00C94B714C4
:1009D00083E00E949030892BE9F0409129145091D6
:1009E0002A1460912B1470912C1480910114909111
:1009F0000214A0910314B09104148A019B01081BF6
:100A0000190B2A0B3B0B0F3111052105310510F095
:100A10000C94C91484E00E949030892BE9F0409135
:100A2000291450912A1460912B1470912C148091E8
:100A3000011490910214A0910314B09104148A013E
:100A40009B01081B190B2A0B3B0B0F3111052105CC
:100A5000310510F00C94DB1485E00E949030892B56
:100A6000E9F04091291450912A1460912B1470914F
:100A70002C148091011490910214A0910314B09150
:100A800004148A019B01081B190B2A0B3B0B0F3125
:100A900011052105310510F00C94ED1486E00E943B
:100AA0009030892BE9F08091291490912A14A0911B
:100AB0002B14B0912C1440910114509102146091A8
:100AC0000314709104148C019D01041B150B260B5B
:100AD000370B0F3111052105310510F00C94FF146F
:100AE00081E00E949030892BE9F080912914909147
:100AF0002A14A0912B14B0912C1440910114509100
:100B0000021460910314709104148C019D01041B64
:100B1000150B260B370B0F3111052105310510F090
:100B20000C940B1582E00E949030892BE9F04091E3
:100B3000291450912A1460912B1470912C148091D7
:100B4000011490910214A0910314B09104148A012D
:100B50009B01081B190B2A0B3B0B0F3111052105BB
:100B6000310510F00C94171583E00E949030892B0A
:100B7000E9F04091291450912A1460912B1470913E
:100B80002C148091011490910214A0910314B0913F
:100B900004148A019B01081B190B2A0B3B0B0F3114
:100BA00011052105310510F00C94291584E00E94EF
:100BB0009030892BE9F04091291450912A146091CA
:100BC0002B1470912C148091011490910214A09117
:100BD0000314B09104148A019B01081B190B2A0B02
:100BE0003B0B0F3111052105310510F00C943B151D
:100BF00085E00E949030892BE9F0409129145091B2
:100C00002A1460912B1470912C14809101149091EE
:100C10000214A0910314B09104148A019B01081BD3
:100C2000190B2A0B3B0B0F3111052105310510F073
:100C30000C944D1581E00E949030892BE9F0409191
:100C4000291450912A1460912B1470912C148091C6
:100C5000011490910214A0910314B09104148A011C
:100C60009B01081B190B2A0B3B0B0F3111052105AA
:100C7000310510F00C945F1580912214882309F43B
:100C800097C082E00E949030892B61F180912914F5
:100C900090912A14A0912B14B0912C14409101141E
:100CA0005091021460910314709104148C019D0101
:100CB000041B150B260B370B0F31110521053105D0
:100CC00088F020912714222311F40C946F1521E051
:100CD000209326148093011490930214A09303147C
:100CE000B093041483E00E949030892BE9F0809146
:100CF000291490912A14A0912B14B0912C14409196
:100D000001145091021460910314709104148C0129
:100D10009D01041B150B260B370B0F311105210507
:100D2000310510F00C94741584E00E949030892BEA
:100D3000E9F04091291450912A1460912B1470917C
:100D40002C148091011490910214A0910314B0917D
:100D500004148A019B01081B190B2A0B3B0B0F3152
:100D600011052105310510F00C94831585E00E94D2
:100D70009030892BE9F04091291450912A14609108
:100D80002B1470912C148091011490910214A09155
:100D90000314B09104148A019B01081B190B2A0B40
:100DA0003B0B0F3111052105310510F00C94931503
:100DB0008091291490912A14A0912B14B0912C1495
:100DC0004091FC135091FD136091FE137091FF133D
:100DD000841B950BA60BB70B89389341A105B10570
:100DE00008F4C8C281E080937D1683E280939F1649
:100DF00010927E161092A01662E070E083E290E0FE
:100E00000E94611E83E997E10E94593B00E010E0D7
:100E1000182F83E997E10E94593B082B192B0E9458
:100E2000AA1EB80180E090E00E9466442AE939E9F0
:100E300049E95FE30E9420460E949946709324147A
:100E4000609323148091B1179091B2170E94B73824
:100E500040E06CEC8091B1179091B2170E94643819
:100E60004091AB1764E48091B1179091B2170E9442
:100E700064388091AD178823D9F1E091AC17E9501F
:100E8000E33040F4F0E0EE0FFF1FEB5EFD4F00811A
:100E9000118102C00EEE12E08091AE17882311F18D
:100EA0008091AB1781111EC00E94813A4B015C01F9
:100EB0006801110FEE08FF088091B1179091B217E9
:100EC0000E9411388130A1F00E94813ADC01CB01EF
:100ED0008C199D09AE09BF0988159905AA05BB059E
:100EE00058F306C0B801110F880B990B0E94E83126
:100EF0008091B1179091B2170E94B738811103C049
:100F000060E874EE3DC0BE016F5F7F4F80E092E00D
:100F10000E94AB2F8823A1F3CE0101960E94FA37DD
:100F2000882371F32A8130E0C901982F8827990F0F
:100F3000990F990F698128E0629FB00111249C01EB
:100F4000262B372B809100028031C9F4688570E030
:100F50008F81AB01481B5109CA019695982F8827AC
:100F6000979587950E94834560517109207F53E0D2
:100F7000220F331F5A95E1F7620F731F01C0B901A9
:100F8000613854EE75076CF0072E000C880B990B36
:100F90000E94684420E030E040E05CE30E94A3440B
:100FA00004C060E070E08EEF92EC0E949246709375
:100FB000FB136093FA138CEC97E10E94163C0E949D
:100FC000924670931314609312148FEB97E10E9472
:100FD000163C0E9492467093201460931F148CEC70
:100FE00097E10E94CD3B0E94924670931714609344
:100FF00016148FEB97E10E94CD3B0E9492467093AE
:101000001514609314140E945D1F80E00E942F1F2E
:101010006BE573E08AED97E10E94503760911214FE
:10102000709113148AED97E10E9439306BE573E0FB
:101030008AEE96E10E945037609112147091131459
:101040008AEE96E10E9439306FE573E08AED97E110
:101050000E94503760911F14709120148AED97E11F
:101060000E9439306FE573E08AEE96E10E945037B6
:1010700060911F14709120148AEE96E10E9439301D
:1010800064E673E08AED97E10E9450376091231483
:10109000709124148AED97E10E94393064E673E080
:1010A0008AEE96E10E9450376091231470912414C7
:1010B0008AEE96E10E94393081E00E942F1F6BE694
:1010C00073E08AED97E10E94503760911614709199
:1010D00017148AED97E10E9439306AE673E08AEED0
:1010E00096E10E94503760911614709117148AEEA1
:1010F00096E10E9439306FE673E08AED97E10E9435
:10110000503760911414709115148AED97E10E9484
:1011100039306FE673E08AEE96E10E9450376091B5
:101120001414709115148AEE96E10E94393064E728
:1011300073E08AED97E10E94503780910B14882369
:1011400019F06CE67DE009C080910614882319F03F
:101150006AE773E002C063EA73E08AED97E10E94F8
:10116000503760910714709108148AED97E10E943E
:1011700039306CE773E08AEE96E10E945037609157
:101180000714709108148AEE96E10E94393082E0CB
:101190000E942F1F64E873E08AED97E10E945037A8
:1011A0006091251470E08AED97E10E94393063E880
:1011B00073E08AEE96E10E9450376091251470E04A
:1011C0008AEE96E10E9439306AE873E08AED97E191
:1011D0000E9450376091181470E08AED97E10E94E8
:1011E00039306AE873E08AEE96E10E9450376091E8
:1011F000181470E08AEE96E10E94393060E973E0DD
:101200008AED97E10E94503780912814882319F0C5
:101210006CE67DE009C080912614882319F06AE706
:1012200073E002C063EA73E08AED97E10E945037F1
:101230006091271470E08AED97E10E94393066E9E9
:1012400073E08AEE96E10E9450376091271470E0B7
:101250008AEE96E10E94393083E00E942F1FCE0172
:101260000F960E94673C8823E9F189898A3030F41F
:1012700060E070E08AED97E10E94393069898AED7B
:1012800097E10E94B4216AE38AED97E10E949936C2
:1012900088898A3030F460E070E08AED97E10E943E
:1012A000393068898AED97E10E94B42161EA73E0E0
:1012B0008AEE96E10E94503769898AEE96E10E9493
:1012C000B4216AE38AEE96E10E94993668898AEE33
:1012D00096E10E94B4216CE974E08AEE96E10E94E6
:1012E000DE3606C062E772E78AED97E10E94393088
:1012F00080910514882331F065EA73E08AED97E167
:101300000E94503780912114882331F069EA73E0FC
:101310008AED97E10E94503780911114882331F0B3
:101320006DEA73E08AED97E10E94503780911014C6
:10133000882331F061EB73E08AED97E10E9450372A
:1013400080912214882331F065EB73E08AED97E1F8
:101350000E9450378091291490912A14A0912B1447
:10136000B0912C148093FC139093FD13A093FE1363
:10137000B093FF134091291450912A1460912B14BB
:1013800070912C148091F6139091F713A091F8139B
:10139000B091F913481B590B6A0B7B0B8091F41326
:1013A0009091F513092E000CAA0BBB0B841795071F
:1013B000A607B70708F049C083E10E9490309093D8
:1013C000F3138093F213019719F588E08093E517E2
:1013D00060E08AED97E10E94B23788E99AE3909342
:1013E000F5138093F41369EB73E08AEE96E10E94A3
:1013F00050376091F2137091F3138AEE96E10E94D8
:1014000039306CE974E08AEE96E10E94DE360DC058
:101410001092E51760E08AED97E10E94B23784EF01
:1014200091E09093F5138093F41380912914909197
:101430002A14A0912B14B0912C148093F61390933E
:10144000F713A093F813B093F9130E943923409136
:10145000A3175091A417ABE6B8E19EE111968C91C9
:101460001197882361F18C9184FF20C0282F30E0F0
:101470002F70929FF001939FF00D1124EF52FB4EBD
:10148000248135812417350789F41C821B8248EE9C
:1014900053E060E070E04D835E836F8378878FE177
:1014A00092E09A838983BE87AD871EC086FF07C0FE
:1014B00016962D913C9117974217530731F3519689
:1014C00088E1AF3AB80751F61C821B8288EE93E0A0
:1014D000A0E0B0E08D839E83AF83B8878FE192E078
:1014E0009A8389831E861D86CE0101960E944D2512
:1014F000882311F40C94A31562EC73E08AEE96E154
:101500000E943C376EE974E0CE0146960E94843614
:1015100011E0CE0101960E94E921882311F40C9478
:101520005314CE0101960E940522892B91F3CE011E
:1015300001960E94BB21082F682F8AEE96E10E9437
:10154000B0350A3011F00C944C14112309F3CE017C
:1015500001960E940522892B11F1CE0101960E946D
:10156000BB210A8D1B8D0138110588F78C8F1D8ECC
:101570000F5F1F4FB801CE0146960E945836882350
:1015800031F32E893F898A8D9B8DBE01645E7F4F2A
:10159000820F931F0E94C2471B8F0A8FD8CF4A8D9C
:1015A0005B8D6E897F898AEE96E10E941D356CE91C
:1015B00074E08AEE96E10E94DE366DEC73E0CE01B7
:1015C0004C960E948436BE01645E7F4FCE014696E3
:1015D0000E948C308C01CE014C960E947F3617FD04
:1015E00014C36DEC73E0CE014C960E948436BE01AC
:1015F000645E7F4FCE0146960E948C300896909391
:10160000F1138093F013CE014C960E947F36009127
:10161000F0131091F11365ED73E0CE014C960E942A
:101620008436A801BE01645E7F4FCE0146960E94BB
:101630006F309093EF138093EE13CE014C960E947F
:101640007F362091EE133091EF134091F0135091BB
:10165000F113BE016A5E7F4FCE014C960E94B634F4
:10166000CE014C960E94D73A7093261960932519A3
:10167000CE014C960E947F3667ED73E0CE014C960A
:101680000E948436BE01645E7F4FCE0146960E9462
:101690008C3008969093F1138093F013CE014C9602
:1016A0000E947F360091F0131091F11365ED73E005
:1016B000CE014C960E948436A801BE01645E7F4F25
:1016C000CE0146960E946F309093EF138093EE13F5
:1016D000CE014C960E947F362091EE133091EF138D
:1016E0004091F0135091F113BE016A5E7F4FCE011D
:1016F0004C960E94B634CE014C960E94D73A709315
:10170000281960932719CE014C960E947F366FED01
:1017100073E0CE014C960E948436BE01645E7F4F1A
:10172000CE0146960E948C3009969093F1138093D7
:10173000F013CE014C960E947F360091F013109169
:10174000F11365ED73E0CE014C960E948436A8013A
:10175000BE01645E7F4FCE0146960E946F3090932B
:10176000EF138093EE13CE014C960E947F362091AA
:10177000EE133091EF134091F0135091F113BE012D
:101780006A5E7F4FCE014C960E94B634CE014C96D5
:101790000E94D73A70932A1960932919CE014C966A
:1017A0000E947F3668EE73E0CE014C960E9484362C
:1017B000BE01645E7F4FCE0146960E948C30059636
:1017C0009093F1138093F013CE014C960E947F36D4
:1017D0000091F0131091F11365ED73E0CE014C967A
:1017E0000E948436A801BE01645E7F4FCE014696FA
:1017F0000E946F309093EF138093EE13CE014C96BE
:101800000E947F362091EE133091EF134091F01338
:101810005091F113BE016A5E7F4FCE014C960E943B
:10182000B634CE014C960E94D73A70932C1960932F
:101830002B19CE014C960E947F366DEE73E0CE01DF
:101840004C960E948436BE01645E7F4FCE01469660
:101850000E948C3006969093F1138093F013CE0182
:101860004C960E947F360091F0131091F11365EDB4
:1018700073E0CE014C960E948436A801BE01645EDE
:101880007F4FCE0146960E946F309093EF13809366
:10189000EE13CE014C960E947F362091EE133091CC
:1018A000EF134091F0135091F113BE016A5E7F4F28
:1018B000CE014C960E94B634CE014C960E94D73A87
:1018C00070932E1960932D19CE014C960E947F368D
:1018D00063EF73E0CE014C960E948436BE01645ED5
:1018E0007F4FCE0146960E948C3009969093F1135B
:1018F0008093F013CE014C960E947F360091F01336
:101900001091F11365ED73E0CE014C960E94843680
:10191000A801BE01645E7F4FCE0146960E946F30E3
:101920009093EF138093EE13CE014C960E947F3676
:101930002091EE133091EF134091F0135091F11379
:10194000BE016A5E7F4FCE014C960E94B634CE0136
:101950004C960E94D73A7093301960932F19CE019C
:101960004C960E947F366CEF73E0CE014C960E943D
:101970008436BE01645E7F4FCE0146960E948C3055
:101980000A969093F1138093F013CE014C960E9427
:101990007F360091F0131091F11365ED73E0CE01E5
:1019A0004C960E948436A801BE01645E7F4FCE0132
:1019B00046960E946F309093EF138093EE13CE0102
:1019C0004C960E947F362091EE133091EF13409198
:1019D000F0135091F113BE016A5E7F4FCE014C9619
:1019E0000E94B634CE014C960E94D73A70933219B9
:1019F00060933119CE014C960E947F3666E074E008
:101A0000CE014C960E948436BE01645E7F4FCE01AB
:101A100046960E948C300A969093F1138093F013AF
:101A2000CE014C960E947F360091F0131091F11375
:101A300065ED73E0CE014C960E948436A801BE018C
:101A4000645E7F4FCE0146960E946F309093EF13F5
:101A50008093EE13CE014C960E947F362091EE13B8
:101A60003091EF134091F0135091F113BE016A5E73
:101A70007F4FCE014C960E94B634CE014C960E9408
:101A8000D73A7093361960933519CE014C960E945F
:101A90007F3660E174E0CE014C960E948436BE0130
:101AA000645E7F4FCE0146960E948C300A969093DA
:101AB000F1138093F013CE014C960E947F36009173
:101AC000F0131091F11365ED73E0CE014C960E9476
:101AD0008436A801BE01645E7F4FCE0146960E9407
:101AE0006F309093EF138093EE13CE014C960E94CB
:101AF0007F362091EE133091EF134091F013509107
:101B0000F113BE016A5E7F4FCE014C960E94B6343F
:101B1000CE014C960E94D73A7093341960933319D2
:101B2000CE014C960E947F366AE174E0CE014C965D
:101B30000E948436BE01645E7F4FCE0146960E94AD
:101B40008C3009969093F1138093F013CE014C964C
:101B50000E947F360091F0131091F11365ED73E050
:101B6000CE014C960E948436A801BE01645E7F4F70
:101B7000CE0146960E946F309093EF138093EE1340
:101B8000CE014C960E947F362091EE133091EF13D8
:101B90004091F0135091F113BE016A5E7F4FCE0168
:101BA0004C960E94B634CE014C960E94D73A709360
:101BB000381960933719CE014C960E947F3605E2A2
:101BC00019E182E7E82E86E1F82E99E3C92E99E122
:101BD000D92EF80160810E5F1F4FF70161937F01DD
:101BE0008AEE96E10E94B42163E274E08AEE96E107
:101BF0000E945037C016D10661F76EE974E08AEE94
:101C000096E10E943C370E94061F67E274E0CE0115
:101C10004C960E948436BE01645E7F4FCE0146968C
:101C20000E948C308C01CE014C960E947F3617FDAD
:101C30002EC26EE274E0CE014C960E948436BE0144
:101C4000645E7F4FCE0146960E948C308C01CE019F
:101C50004C960E947F3617FD04C081E080932114CA
:101C600002C0109221146AE374E0CE014C960E94E7
:101C70008436BE01645E7F4FCE0146960E948C3052
:101C80008C01CE014C960E947F3617FD04C081E086
:101C90008093101402C01092101466E474E0CE0118
:101CA0004C960E948436BE01645E7F4FCE014696FC
:101CB0000E948C308C01CE014C960E947F3617FD1D
:101CC00004C081E08093111402C01092111461E5E8
:101CD00074E0CE014C960E948436BE01645E7F4F54
:101CE000CE0146960E948C308C01CE014C960E940B
:101CF0007F3617FD04C081E08093051402C0109266
:101D0000051467E274E0CE014C960E948436BE0151
:101D1000645E7F4FCE0146960E948C30079690936A
:101D2000F1138093F013CE014C960E947F36009100
:101D3000F0131091F11365ED73E0CE014C960E9403
:101D40008436A801BE01645E7F4FCE0146960E9494
:101D50006F309093EF138093EE13CE014C960E9458
:101D60007F362091EE133091EF134091F013509194
:101D7000F113BE016A5E7F4FCE014C960E94B634CD
:101D8000CE014C960E94D73A6B017C01CE014C9655
:101D90000E947F361C141D041E041F0424F481E0DD
:101DA0008093221402C01092221461E973E0CE01E4
:101DB0004C960E948436BE01645E7F4FCE014696EB
:101DC0000E948C3005969093F1138093F013CE010E
:101DD0004C960E947F360091F0131091F11365ED3F
:101DE00073E0CE014C960E948436A801BE01645E69
:101DF0007F4FCE0146960E946F309093EF138093F1
:101E0000EE13CE014C960E947F362091EE13309156
:101E1000EF134091F0135091F113BE016A5E7F4FB2
:101E2000CE014C960E94B634CE014C960E94D73A11
:101E30006B017C01CE014C960E947F361C141D0460
:101E40001E041F04CCF480912114811104C09091D0
:101E50002214992389F090912714911104C081E0F4
:101E60008093281409C0811104C080912214882312
:101E700019F081E08093261468EE73E0CE014C9651
:101E80000E948436BE01645E7F4FCE0146960E945A
:101E90008C3005969093F1138093F013CE014C96FD
:101EA0000E947F360091F0131091F11365ED73E0FD
:101EB000CE014C960E948436A801BE01645E7F4F1D
:101EC000CE0146960E946F309093EF138093EE13ED
:101ED000CE014C960E947F362091EE133091EF1385
:101EE0004091F0135091F113BE016A5E7F4FCE0115
:101EF0004C960E94B634CE014C960E94D73A6B01A4
:101F00007C01CE014C960E947F361C141D041E04D9
:101F10001F045CF480911014811104C0809122147C
:101F2000882319F081E0809325146DE574E0CE01DB
:101F30004C960E948436BE01645E7F4FCE01469669
:101F40000E948C3004969093F1138093F013CE018D
:101F50004C960E947F360091F0131091F11365EDBD
:101F600073E0CE014C960E948436A801BE01645EE7
:101F70007F4FCE0146960E946F309093EF1380936F
:101F8000EE13CE014C960E947F362091EE133091D5
:101F9000EF134091F0135091F113BE016A5E7F4F31
:101FA000CE014C960E94B634CE014C960E94D73A90
:101FB0006B017C01CE014C960E947F361C141D04DF
:101FC0001E041F045CF480911114811104C08091DF
:101FD0002214882319F081E08093181465E773E0D8
:101FE000CE014C960E948436BE01645E7F4FCE01C6
:101FF00046960E948C3005969093F1138093F013CF
:10200000CE014C960E947F360091F0131091F1138F
:1020100065ED73E0CE014C960E948436A801BE01A6
:10202000645E7F4FCE0146960E946F309093EF130F
:102030008093EE13CE014C960E947F362091EE13D2
:102040003091EF134091F0135091F113BE016A5E8D
:102050007F4FCE014C960E94B634CE014C960E9422
:10206000D73A6B017C01CE014C960E947F361C143E
:102070001D041E041F045CF480910514811104C02A
:1020800080912214882319F081E080930B1461E67B
:1020900074E0CE0101960E943C3761E774E0CE0106
:1020A00001960E943C3769E874E0CE0101960E94D7
:1020B00050376FE974E0CE0101960E94503767E017
:1020C00076E0CE0101960E945037CE010F960E9415
:1020D000673C8823D9F16989CE0101960E94B42119
:1020E0006AE3CE0101960E9499366889CE01019675
:1020F0000E94B4216AE3CE0101960E9499366F8551
:10210000CE0101960E94B4216CE476E0CE010196E6
:102110000E9450376B89CE0101960E94B4216FE274
:10212000CE0101960E9499366C89CE0101960E94DB
:10213000B4216FE2CE0101960E9499366D8970E05C
:102140006E54784FCE0101960E94393062ED7AE0EC
:10215000CE0101960E94503764E576E0CE010196EB
:102160000E943C376DE776E0CE0101960E94503721
:1021700068EA76E0CE0101960E94503780912214E1
:10218000811106C067EC76E0CE0101960E945037BF
:1021900062ED76E0CE0101960E94503780912214C4
:1021A000882331F067EC76E0CE0101960E9450372B
:1021B0006BEF76E0CE0101960E94503762ED7AE037
:1021C000CE0101960E94503765E377E0CE0101967B
:1021D0000E94503760E677E0CE0101960E945037AA
:1021E00080912714882331F067EC76E0CE010196C8
:1021F0000E9450376CE777E0CE0101960E9450377D
:1022000080912714811106C067EC76E0CE0101961B
:102210000E94503767EA77E0CE0101960E9450375E
:1022200080912614882331F064ED77E0CE01019689
:102230000E94503780912814882331F06DED77E0AB
:10224000CE0101960E9450376CE479E0CE010196F0
:102250000E94503780912114882331F066EE77E098
:10226000CE0101960E94503760EF77E0CE010196D3
:102270000E94503762ED7AE0CE0101960E945037FD
:1022800063E178E0CE0101960E94503764E478E083
:10229000CE0101960E94503780912514882331F099
:1022A00067EC76E0CE0101960E94503760E678E058
:1022B000CE0101960E94503780912514811106C0ED
:1022C00067EC76E0CE0101960E9450376BE878E02B
:1022D000CE0101960E9450376AEB78E0CE0101965C
:1022E0000E94503780911014882331F066EE77E019
:1022F000CE0101960E94503769ED78E0CE0101963B
:102300000E94503762ED7AE0CE0101960E9450376C
:102310006CEF78E0CE0101960E94503760E379E0DF
:10232000CE0101960E94503780911814882331F015
:1023300067EC76E0CE0101960E94503760E678E0C7
:10234000CE0101960E94503780911814811106C069
:1023500067EC76E0CE0101960E9450376BE878E09A
:10236000CE0101960E9450376BE479E0CE010196D0
:102370000E94503780911114882331F066EE77E087
:10238000CE0101960E9450376AE679E0CE010196AF
:102390000E94503762ED7AE0CE0101960E945037DC
:1023A0006CE879E0CE0101960E94503760910714E5
:1023B00070910814CE0101960E9439306FEB79E0DC
:1023C000CE0101960E945037809107149091081415
:1023D0001816190634F467EC76E0CE0101960E94D7
:1023E000503760E678E0CE0101960E945037809128
:1023F000071490910814892B31F467EC76E0CE0134
:1024000001960E94503763EE79E0CE0101960E945A
:10241000503780910614882331F064ED77E0CE01C7
:1024200001960E94503780910B14882331F06DED96
:1024300077E0CE0101960E9450376BE479E0CE013F
:1024400001960E94503780910514882331F066EE82
:1024500077E0CE0101960E94503763E17AE0CE0129
:1024600001960E94503762ED7AE0CE0101960E94FB
:10247000503766E37AE0CE0101960E94503762ED54
:102480007AE0CE0101960E94503764EA7AE0CE01EC
:1024900001960E9450376DED7AE0CE0101960E94C0
:1024A00050376091231470912414CE0101960E943C
:1024B000393064E17BE0CE0101960E94503762ED35
:1024C0007AE0CE0101960E94503768E17BE0CE01B0
:1024D00001960E9450376091121470911314CE012E
:1024E00001960E9439306DE57BE0CE0101960E9495
:1024F000503762ED7AE0CE0101960E94503765E6D2
:102500007BE0CE0101960E94503760911F147091BC
:102510002014CE0101960E9439306DE57BE0CE019A
:1025200001960E94503762ED7AE0CE0101960E943A
:1025300050376CEA7BE0CE0101960E9450376091E3
:10254000FA137091FB13CE0101960E9439306DE5AC
:102550007BE0CE0101960E94503762ED7AE0CE0119
:1025600001960E94503762EF7BE0CE0101960E94F7
:1025700050376091161470911714CE0101960E9485
:10258000393063E37CE0CE0101960E94503762ED62
:102590007AE0CE0101960E94503765E37CE0CE01DF
:1025A00001960E9450376091141470911514CE0159
:1025B00001960E94393063E37CE0CE0101960E94CF
:1025C000503762ED7AE0CE0101960E94503768E7FD
:1025D0007CE0CE0101960E94503762E87CE0CE019B
:1025E00001960E9450376DEB7CE0CE0101960E946F
:1025F0003C376AEE7CE0CE0101960E94503760E4E1
:102600007DE0CE0101960E945037609125197091AE
:102610002619CE0101960E9439306EE67DE0CE018A
:1026200001960E94503762ED7AE0CE0101960E9439
:1026300050376EE97DE0CE0101960E94503760E48C
:102640007DE0CE0101960E9450376091271970916C
:102650002819CE0101960E94393062EF7DE0CE014B
:1026600001960E94503762ED7AE0CE0101960E94F9
:10267000503763E27EE0CE0101960E94503760E45D
:102680007DE0CE0101960E9450376091291970912A
:102690002A19CE0101960E94393066E87EE0CE010B
:1026A00001960E94503762ED7AE0CE0101960E94B9
:1026B00050376AEB7EE0CE0101960E94503760E40D
:1026C0007DE0CE0101960E94503760912B197091E8
:1026D0002C19CE0101960E94393061E27FE0CE01D3
:1026E00001960E94503762ED7AE0CE0101960E9479
:1026F00050376CE47FE0CE0101960E94503760E4D1
:102700007DE0CE0101960E94503760912D197091A5
:102710002E19CE0101960E9439306CEB7FE0CE017C
:1027200001960E94503762ED7AE0CE0101960E9438
:10273000503768EE7FE0CE0101960E94503760E48A
:102740007DE0CE0101960E94503760912F19709163
:102750003019CE0101960E94393068E470E1CE0153
:1027600001960E94503762ED7AE0CE0101960E94F8
:1027700050376AE770E1CE0101960E94503760E45D
:102780007DE0CE0101960E94503760913119709121
:102790003219CE0101960E9439306EED70E1CE0102
:1027A00001960E94503762ED7AE0CE0101960E94B8
:1027B000503762E171E1CE0101960E94503760E42A
:1027C0007DE0CE0101960E945037609135197091DD
:1027D0003619CE0101960E94393065E871E1CE01CB
:1027E00001960E94503762ED7AE0CE0101960E9478
:1027F00050376BEB71E1CE0101960E94503760E4D7
:102800007DE0CE0101960E9450376091331970919E
:102810003419CE0101960E9439306BE272E1CE018B
:1028200001960E94503762ED7AE0CE0101960E9437
:1028300050376FE572E1CE0101960E94503760E497
:102840007DE0CE0101960E9450376091371970915A
:102850003819CE0101960E94393062ED72E1CE0145
:1028600001960E94503762ED7AE0CE0101960E94F7
:10287000503766E073E1CE0101960E94503762ED59
:102880007AE0CE0101960E94503768E773E1CE01ED
:1028900001960E94503707C00D3011F40C94890A3C
:1028A00010E00C94890A61E070E080E090E00E9402
:1028B000E831CE0101960E9463256CE974E08AEE4E
:1028C00096E10E94DE366FE873E18AEE96E10E949F
:1028D0003C37CE0146960E947F3635C18091211447
:1028E00081110C942E0380911B1490911C14A091C3
:1028F0001D14B0911E1497018601081B190B2A0B99
:102900003B0BD901C80181369A4EA105B10588F06B
:102910008091191490911A14019690931A1480932F
:102920001914C0921B14D0921C14E0921D14F09242
:102930001E148091191490911A14449714F40C9455
:102940002E0310921A141092191481E08093261409
:102950000C942E0321E02093001480930114909393
:102960000214A0930314B09304140C94C104909126
:10297000211481E0892780932114409301145093FE
:1029800002146093031470930414109200140C94B6
:10299000E8049091051481E0892780930514409301
:1029A0000114509302146093031470930414109252
:1029B00000140C940A059091101481E089278093EB
:1029C00010144093011450930214609303147093F5
:1029D0000414109200140C942C059091111481E0B1
:1029E000892780931114409301145093021460932B
:1029F000031470930414109200140C944E0510925A
:102A000000148093011490930214A0930314B093C4
:102A100004140C9470051092001480930114909388
:102A20000214A0930314B09304140C949205909193
:102A3000211481E08927809321144093011450933D
:102A400002146093031470930414109200140C94F5
:102A5000B4059091051481E0892780930514409373
:102A60000114509302146093031470930414109291
:102A700000140C94D6059091101481E0892780935E
:102A80001014409301145093021460930314709334
:102A90000414109200140C94F8059091111481E024
:102AA000892780931114409301145093021460936A
:102AB000031470930414109200140C941A0690914D
:102AC000221481E0892780932214409301145093AB
:102AD000021460930314709304140C943C0621E0D8
:102AE000209328140C946A061092061421E0209377
:102AF0000B148093011490930214A0930314B093C9
:102B000004140C9494069091251481E089278093F5
:102B1000251440930114509302146093031470938E
:102B200004140C94B6069091181481E089278093C0
:102B3000181440930114509302146093031470937B
:102B400004140C94D806A1960FB6F894DEBF0FBEFD
:102B5000CDBFDF91CF911F910F91FF90EF90DF904C
:102B6000CF90BF90AF909F908F900895EF92FF927B
:102B70001F93CF93DF93843009F4F0C1C0913414D4
:102B8000D091351421EF38E13093BA182093B91859
:102B90003093B4182093B318833059F4898D8F7013
:102BA000833009F0C8C688899989892B09F0C3C682
:102BB0007EC0823009F07FC0809132148F5F809395
:102BC0003214811113C0809131148F5F80933114BE
:102BD00081110CC0809130148F5F8093301481116B
:102BE00005C080912F148F5F80932F141092B81816
:102BF0001092B7181092B6181092B518898D982FA8
:102C00009D7F953041F48A8D8F5F8A8F883709F0D8
:102C100092C6198E90C6882309F48DC628893989F1
:102C2000232B09F440C09A8D2FEF290F2A8F911181
:102C300082C69B8D983031F02FEF280F223048F458
:102C4000953039F4198E80E8809333140E9422263F
:102C50002BC5953038F423E0092E01C0220F0A94C9
:102C6000EAF701C020E32A8F9F5F9B8F8F7083302C
:102C7000A1F048F4813009F44EC3823009F05BC6FC
:102C80001092EA184BC3863009F4ABC4883009F4BB
:102C9000A8C4843009F04FC6A4C484E080933314E0
:102CA0000E94222633C58F70833009F044C688E025
:102CB00080933314EEC4853019F5E0912D14F09112
:102CC0002E1484819581892B09F435C61092351410
:102CD0001092341485EE98E19093BA188093B91845
:102CE0009093B4188093B3181092B6181092B51838
:102CF0001092B8181092B71888E0809333142CC142
:102D00008091C918853409F016C6C091CB18D0E05F
:102D1000DC2FCC278091CC18C80FD11D8091B7181B
:102D20009091B8188C179D0708F405C6D093B81871
:102D3000C093B7188091CF188F7309F0FCC510911C
:102D4000D0181111F8C5E0904614F0904714E11422
:102D5000F10439F48091481490914914892B09F4B5
:102D600042C08091D2182091D9183091DA1881315F
:102D700051F52F3F4FEF340739F48091DB189091D4
:102D8000DC18019609F471C080913E1490913F14B3
:102D9000809590958E299F2928173907A1F4809155
:102DA0004014909141148095909540914814509111
:102DB0004914842B952B4091DB185091DC1848174F
:102DC000590709F452C0E216F30609F0B4C5209180
:102DD000DB183091DC188091481490914914281721
:102DE000390709F0A8C50E944E2E019609F0A3C527
:102DF0008091D218863009F415C18131B1F181304A
:102E000009F099C58091DD18883009F094C51092B9
:102E1000DD188091DF189091E018873FCFEF9C0775
:102E200010F0099601C008969093E0188093DF187F
:102E30008091D5189091D6189093DA188093D9186C
:102E40008091D7189091D8189093DC188093DB1854
:102E5000F092D618E092D5188091481490914914B8
:102E60009093D8188093D7186AC56C97D093B818E8
:102E7000C093B71885EE98E19093BA188093B9186B
:102E80008091E3189091E418892B99F42091DF1830
:102E90003091E0184091DD185091DE186091D518FE
:102EA0007091D618A091D718B091D818E3EAF4E140
:102EB0000CC081E10E94C92D019609F03CC5E6CF06
:102EC00084819581009731F43B9684E1EF3CF807CB
:102ED000B8F324C082179307B9F7868197810097CA
:102EE00019F08417950781F780819181009729F463
:102EF000C281D381CD2B49F416C08F3FCFEF9C0701
:102F000021F4C281D381219671F086179707E1F6EB
:102F100082819381A817B907B9F605C0F0932E14E2
:102F2000E0932D1408C5F0932E14E0932D14109205
:102F300035141092341482E08093331485EE98E1B6
:102F40009093BA188093B9189093B4188093B318DB
:102F50001092B6181092B5180E94E12C8091B51805
:102F60009091B618009709F4E6C49C01245E3F4F87
:102F70003093B8182093B7183093CB182093CC18FF
:102F8000E0912D14F0912E1420852093D11821E189
:102F90002093D21808969827892798279093E218AB
:102FA0008093E1181092E4181092E31884819581BF
:102FB0009093DE188093DD18868197819093E018B6
:102FC0008093DF1880914614909147149093D618FF
:102FD0008093D51880914814909149149093D818F3
:102FE0008093D718808191819093DA188093D918B3
:102FF000828193819093DC188093DB1881EF98E1B4
:103000009093BA188093B91881E10E94C92D8095D8
:103010009095009711F48FEF9FEF9093E4188093B1
:10302000E31866C486E00E94C92D019609F083C4A6
:103030002091DF183091E0188091DD189091DE1812
:103040006091D5187091D618E091D718F091D818E2
:10305000C1EDD4E1498D4423A9F0AC81BD812A178B
:103060003B0781F4AE81BF818A179B0759F4A88181
:10307000B9816A177B0731F4AA81BB81EA17FB0784
:1030800009F463C16E9645E1C934D40719F78091FC
:10309000EA188F738230E1F430933D1420933C148E
:1030A00080E0843099F0E82FF0E0EE0FFF1FE75B3F
:1030B000FA4E408151818F5F2417350791F71092A6
:1030C000511580E0C0E0D0E09EE17CC080935115B6
:1030D0008091EA1882FD2FC484E18093EA1888E287
:1030E00090E09093B8188093B71880E58093E91822
:1030F0003091E4188091E8188093E4182091E31847
:103100008091E7188093E3182093E7189091E218D4
:103110008091E6188093E2189093E6188091E11868
:10312000809351154091E5184093E1188093E5187C
:103130003F5F3093E81831110DC02F5F2093E718DF
:10314000211108C09F5F9093E618911103C08F5F13
:103150008093E5188091DD189091DE1890933D14CE
:1031600080933C142091DF183091E0183093DE18E2
:103170002093DD189093E0188093DF188091D51884
:103180009091D6189093DA188093D9188091D71817
:103190009091D8189093DC188093DB188091461496
:1031A000909147149093D6188093D5188091481425
:1031B000909149149093D8188093D7187DC34730C5
:1031C00099F08F5F8430F1F0282F30E0929FF0016A
:1031D000939FF00D1124EF52FB4E418D4111EFCF23
:1031E00080935115EF0110C0209721F0528D4A8D28
:1031F000451738F7929FE001939FD00D1124CF52CD
:10320000DB4EDFCF80935115209709F494C3D09300
:103210003514C093341483E08A8F888F1E8A84E02B
:103220008F8B1B8E8091DF189091E0189D838C838B
:103230008091DD189091DE189F838E838091D51840
:103240009091D618998388838091D7189091D81837
:103250009B838A8381E0898F80912F148C87809152
:1032600030148D87809131148E87809132148F872E
:1032700081E090E0998B888B8091E4188B87809116
:10328000E3188A878091E21889878091E1188887FE
:1032900081E090E00E94633E8091E918982F907F32
:1032A0009135C8F182958F7090E00597880F991F2E
:1032B000880F991FE12FF0E0E817F90754F5E5545E
:1032C000F74E26A9222329F1213011F41F5FF2CFF6
:1032D0002230D1F427A92430B9F41093511580ADD0
:1032E00090E0982F882721AD822B90933D148093F6
:1032F0003C14813062E0960710F080E092E09B8BF6
:103300008A8B9D8B8C8B07C027A9222311F0120F6B
:10331000D1CF1093511580E18093EA188091EA187B
:1033200082608093EA1882E08093F11894E0909391
:10333000F2188093F3181092F4188CE290E09093B6
:10334000B8188093B71880E665C2D0933514C0933F
:103350003414109233143091EA18132F147032FF82
:1033600003C0198E80E2FFC12091E91822952F70C9
:10337000220F220F209351158091B7189091B81801
:103380004497821B91099093B8188093B7184F7097
:10339000423021F4232F2F732231C9F0892B19F4E5
:1033A000832F8370A1F09091E1188885981328C22B
:1033B0009091E2188985981323C29091E3188A8529
:1033C00098131EC29091E4188B85981319C234FF8C
:1033D00049C0688979896115710509F443C0CE0136
:1033E0000C960E942D3E3091E518809138143813C8
:1033F00039C02091E61880913914281333C0909178
:10340000E71880913A1498132DC08091E8184091E4
:103410003B14841327C03C872D879E878F878B8D15
:10342000811119C09E89888D2A8D821B292F26958E
:1034300026952695821B980F9E8B87FD81952F8957
:10344000322F36953695231B820F8F8B9695969546
:103450009695890F888F81E080933314888D8A8FA9
:10346000198A188A298DE22FEF708E2F90E0FC01C7
:103470003197E830F10508F05EC28827EE58FF4F1B
:103480008F4F0C9497458091331480FF54C283E092
:10349000898F80E480933314198A188A8091B71831
:1034A0009091B818009709F4F0C022E420933314E7
:1034B0000E94633EEAC08091331480FF61C0809116
:1034C000EA188F73823109F05BC08091E918982F58
:1034D000907F9135C8F182958F7090E00597880FA5
:1034E000991F880F991FE12FF0E0E817F90754F5AD
:1034F000E554F74E26A9222329F1213011F41F5F4C
:10350000F2CF2230D1F427A92430B9F41093511509
:1035100080AD90E0982F882721AD822B90933D14A9
:1035200080933C14813072E0970710F080E092E0C5
:103530009B8B8A8B9D8B8C8B07C027A9222311F034
:10354000120FD1CF1093511583E0898F8091E1182C
:1035500088878091E21889878091E3188A87809113
:10356000E4188B8781E090E00E94633E82E48093C0
:103570003314198A188A1092B8181092B71885C097
:1035800080E2809333140E942226198EA1CD80916F
:10359000EA1880FF28C024FD26C088899989892BD4
:1035A00009F0C9C18091B7189091B81801960E948E
:1035B000633E80913314982F90619093331420913F
:1035C000B7183091B818232B19F082618093331407
:1035D0000E94222681E090E0998B888B88E0898F79
:1035E0001B8E81E10EC185FF1CC08091EF18909168
:1035F000F0189827892798274091B9185091BA1840
:10360000480F591F5093BA184093B9184091B718F2
:103610005091B818BA01681B790B7093B818609371
:10362000B7184091B7185091B8184115510551F08D
:1036300024FD08C090913314926090933314CA0112
:103640000E94633E8091EB1890E0982F882720918C
:10365000EC18820F911D90933D1480933C142C899B
:103660003D892817390710F0892B21F430933D1438
:1036700020933C1480913C1490913D149B8B8A8B39
:1036800080913314837009F456C11092B6181092C9
:10369000B5180E9422268091331485FF07C010922E
:1036A000B6181092B518198E84E1ABC084FF0AC019
:1036B0001092B6181092B51881E090E0998B888B23
:1036C00084E08DCF2091B5183091B61821153105C1
:1036D000E1F080FF02C0198A188A888999890097C9
:1036E00081F48A899B898217930720F49093B618F6
:1036F0008093B5188091B5189091B618998B888BE6
:1037000004C09093B6188093B5181B8E8091B3189F
:103710009091B4189093BA188093B9188091B51805
:103720009091B618892B59F088899989009739F0BA
:1037300088969093B8188093B71888E10BC0809151
:10374000331481FFF8C088E290E09093B81880931A
:10375000B71880E18093EA185CC08091331480FF31
:10376000EAC0198E80E1809333140E942226E3C0C0
:103770008091B7189091B818009711F00E94633E9D
:103780009091EA188091331490FF0BC080FF06C01F
:1037900087E0898F1A8E198A188A19C086E0898F66
:1037A00016C080FF1EC085E0898F198A188AC3C0A1
:1037B0008091B7189091B818009711F00E94633E5D
:1037C0008091EA1880FF0DC087E0898F1A8E81E012
:1037D00090E00E94633E80E1809333140E94222691
:1037E0000FC08091B7189091B818892B49F4A3C0E5
:1037F0008091331480FF9FC087E0898F1A8E9BC011
:1038000080E18093EA1888E290E09093B818809362
:10381000B71880E58093E91888858093E518898535
:103820008093E6188A858093E7188B858093E81843
:103830008C858093E1188D858093E2188E85809326
:10384000E3188F858093E41886E08093D2188C81EA
:103850009D819093DE188093DD188E819F819093D7
:10386000E0188093DF18809146149091471490934C
:10387000D6188093D518809148149091491490934C
:10388000D8188093D718888199819093DA188093FB
:10389000D9188A819B819093DC188093DB18898DDD
:1038A00084FF05C01092EC181092EB1805C082E05E
:1038B0008093EB181092EC1880E48093D1188091DB
:1038C000B7189091B8189093CB188093CC18109299
:1038D000F0181092EF181092EE181092ED1886E082
:1038E0000E94C92D809590959093EE188093ED18C5
:1038F00085E48093C9181092CA181092D0181092BB
:10390000CF18809136149091371401969093371404
:10391000809336149093CD188093CE181092D418BB
:103920001092D3180E944E2E809590959093D418A3
:103930008093D31804C01092B8181092B718109240
:103940003314DF91CF911F91FF90EF900895EF9284
:10395000FF921F93CF93DF93DC012091CF1430911E
:10396000D0142F5F3F4F21158DE7380710F020E06E
:1039700030E1522F432FE3EAF4E180E0843041F05C
:10398000C481D5818F5F3B96C417D507B9F7E9CFBE
:103990003093D0142093CF1490E08BE09430C1F09A
:1039A000292F30E011E0190F829FF001839FF00D65
:1039B0001124ED55FB4EEF012496E480F580EF28AD
:1039C00029F490935115309731F429C0912FE6CF07
:1039D0009093511524C05983488377836683109749
:1039E00031F484E0DF011D928A95E9F70BC08D91D7
:1039F0009C9111979183808312968D919C9113973E
:103A0000938382838BE0829FD001839FB00D11242A
:103A1000AD55BB4E80E418968C93CF0102C080E078
:103A200090E0DF91CF911F91FF90EF900895CF929A
:103A3000DF92EF92FF920F931F93CF93DF938C014E
:103A400060915215709153156150784EC12C98E1D8
:103A5000D92EE2E5F5E120E0C0E0D0E045E0348198
:103A6000332349F0439FC00111248E5A9A4EDC0142
:103A70008D919C9101C0CB01E080F1808E199F094E
:103A80000280F381E02D8E1B9F0B8017910739F484
:103A9000B5E02B9FE0011124CE5ADA4E45C008173D
:103AA000190748F48C159D0530F4429FE00111245C
:103AB000CE5ADA4E6C01311107C02097A9F5C2E544
:103AC000D5E185E0D82E1AC0439FF0011124EE5AAB
:103AD000FA4E232FC4CFE20EF31ED89EE00111242C
:103AE000CE5ADA4E68817981E616F70639F04A81B6
:103AF0005B81C7010E94322BF982E8828C81E880C9
:103B0000F9802A813B818111E6CF809152159091F5
:103B100053158E199F09821B930B8150984E801765
:103B2000910710F480E019C0E7E5F5E181E022811A
:103B30003381232B29F035968F5F8533C1F7F2CF80
:103B4000488159812A813B81240F351F318320838D
:103B5000138302839C8194838C83DF91CF911F9187
:103B60000F91FF90EF90DF90CF9008958823E9F0B8
:103B7000A2E5B5E125E014969C91149789130DC038
:103B800095E0899FF0011124EE5AFA4E8481149633
:103B90008C931382128214820895992331F0299F05
:103BA000D0011124AE5ABA4EE6CF08951F93CF9399
:103BB000DF93C82FD62F142F60E085E30E94B93021
:103BC000DF71CD2BCEBD0DB407FEFDCF1EBD0DB4F4
:103BD00007FEFDCF61E085E3DF91CF911F910C944B
:103BE000B9301F93CF93DF93182F1076C12FD0E0F9
:103BF0008091080290E0C817D90789F043E06FE18F
:103C000080EA0E94D61DAE0185E0559547958A95BC
:103C1000E1F76FE180E80E94D61D10930802DF9162
:103C2000CF911F9108951F93CF93DF93C82F162F25
:103C3000D72F0E94F11D412F6C2F80E40E94D61DCA
:103C400061E06C0F4D2F80E4DF91CF911F910C94B8
:103C5000D61DCF93DF93C82FD62F0E94F11D4D2F75
:103C60006C2F80E4DF91CF910C94D61DCF93C82F99
:103C70000E94F11D6C2F80E0CF910C94102BCF93FC
:103C8000DF93EB01682F84ED0E94291EBE0186EDB3
:103C90000E94131ECFE0D0E08AEE0E94361E80FF05
:103CA00008C06AE070E080E090E00E94E83121976F
:103CB00099F7DF91CF910895682F83E997E10C94EC
:103CC0009A3B9091C7169111FCCF613208F060E2E7
:103CD00091E09093C7169093C6162FEF2093C516C8
:103CE0001092C416260F2093C3169093C21690917B
:103CF000C216880F892B8093C2168091C11681301D
:103D000061F41092C1168091C2168093BB0080911D
:103D1000BC0083FDF8CF85EC01C085EE8093BC002C
:103D20008091C7168130E1F38091C416861710F494
:103D30006091C416A1EAB6E1EAECF6E180E08617EC
:103D400021F09D9191938F5FFACF1092C9168093C5
:103D5000C81608953091A016313208F04BC08091FA
:103D6000C7168111FCCF90919F1622E02093C716B1
:103D700021E02093C6162FEF2093C5161092C4168B
:103D80003093C316EFE7F6E1A1EAB6E120E032177F
:103D900021F041914D932F5FFACF1092C2162091DE
:103DA000C216990F922B9093C2169091C116913022
:103DB00061F41092C1169091C2169093BB0090913D
:103DC000BC0093FDF8CF95EC01C095EE9093BC003C
:103DD0009091C7169230E1F39091C5169F3F79F00C
:103DE0008091C516803241F08091C516803331F044
:103DF00084E005C081E003C082E001C083E010924E
:103E00007E161092A01610927D160895CF93DF9320
:103E100081E080937D1680E580939F1610927E1638
:103E20001092A01680E090E00E945C1E84E690E074
:103E30000E945C1EC2E7D6E1699183E997E10E9486
:103E40009A3B86E1CD37D807B9F70E94AA1E6AE0EF
:103E500070E080E090E0DF91CF910C94E831CF9357
:103E6000DF93CDB7DEB728970FB6F894DEBF0FBE4D
:103E7000CDBF98E0EDEBF2E0DE01119601900D92DE
:103E80009A95E1F79091E217981710F48FEF890F48
:103E9000FE013196E80FF11DE80FF11D60816068A9
:103EA00040E08AED97E128960FB6F894DEBF0FBE8A
:103EB000CDBFDF91CF910C94DD3740E061E08AED1A
:103EC00097E10E94DD378BE39FE10197F1F70895B9
:103ED0001092C9161092C81610927E161092A01653
:103EE0001092C71681E08093C6161092C11661E049
:103EF00084E10E94B93061E085E10E94B930E9EBCC
:103F0000F0E080818E7F808380818D7F808388E454
:103F10008093B80085E48093BC0087E49BE3909392
:103F200071168093701688E49BE390936F168093CC
:103F30006E1608950F931F93CF93DF93EB0160E00C
:103F400070E00E94E92B8C0160E085E30E94B930AB
:103F50008AE38EBD0DB407FEFDCF9E01200F311FF9
:103F6000C217D30739F01EBC0DB407FEFDCF8EB5C6
:103F70008993F6CF61E085E30E94B930C801DF91F3
:103F8000CF911F910F910895CF92DF92EF92FF9200
:103F90000F931F93CF93DF93CDB7DEB7C254D109F0
:103FA0000FB6F894DEBF0FBECDBFFC0182819381B6
:103FB000A481B58123968CAF9DAFAEAFBFAF2397E1
:103FC00021E023962FAF239723964CAD5DAD6EADC8
:103FD0007FAD23974BAB5CAB6DAB7EAB89AF9AAF3C
:103FE000ABAFBCAF8DA79EA7AFA7B8AB28AB4DA515
:103FF0005EA56FA578A94FA358A769A77AA72EAB8E
:104000004BA95CA96DA97EA949A35AA36BA37CA364
:104010008B8F9C8FAD8FBE8F2AA74FA158A569A506
:104020007AA54D8B5E8B6F8B788F2CA349A15AA1FB
:104030006BA17CA14F87588B698B7A8B89879A8774
:10404000AB87BC870E94813ADC01CB0186509F4F31
:10405000AF4FBF4F8093691690936A16A0936B166B
:10406000B0936C1610925F1610925E161092611645
:104070001092601689E091E0E2E5F5E1DF019C0134
:104080001D9221503040E1F781E098E09093531564
:104090008093521561E085E30E94E83061E085E39A
:1040A0000E94B93061E083E30E94E83061E084E37C
:1040B0000E94E83060E082E30E94E83061E085E33E
:1040C0000E94E83061E085E30E94B93060E083E35C
:1040D0000E94B93060E084E30E94B93080E58CBD75
:1040E0008DB581608DBD4FEF60E08FEF0E94D61DD2
:1040F00062E070E080E090E00E94E83162E370E00E
:1041000080E090E00E94E83110925D1610925C16FB
:1041100000E110E06DE180E00E94102B81110AC0E7
:104120000150110939F06AE070E080E090E00E94EF
:10413000E831F0CF60E070E088E00E94131E60E09C
:1041400070E08CE00E94131E6FEF77E08AE00E941F
:10415000131E61EB88E30E94291E6FE370E388E27F
:104160000E94131E69EF77EF80E30E94131E6DE03B
:1041700070E080EC0E94131E42E362EC80E80E9433
:10418000D61D62E17CE086EC0E94131E62E184ECA5
:104190000E94291E6CED75E08AEC0E94131E60914E
:1041A000090284EE0E94291E60910A0285EE0E9497
:1041B000291E60910B0282EE0E94291E60910C0262
:1041C00083EE0E94291E60910D0280EE0E94291E3E
:1041D00060910E0281EE0E94291E60E071E080E194
:1041E0000E943F1E8FE10E94F11D40EC6BE180E8D0
:1041F0000E94D61D44E06FE180E80E94D61D66E76C
:1042000074E084E10E943F1E82E70E94361E8F3FC9
:1042100009F0A7C010925B16809109028093631683
:1042200080910A028093641680910B028093651638
:1042300080910C028093661680910D028093671620
:1042400080910E028093681680E0E82FF0E0EE0F78
:10425000FF1FE75BFA4E118210828F5F8430A9F74F
:1042600080E09EE1989FF0011124EF52FB4E118EE9
:104270008F5F8430B9F780E094E09093D0148093FE
:10428000CF1480E09BE0989FF0011124ED55FB4E88
:10429000158214828F5F8430B1F78093511510928C
:1042A000A2149BE024E08091A214883070F4989FBF
:1042B000F0011124E65BFB4EDF01322F1D923A958F
:1042C000E9F78F5F8093A214EECF4D895E898F89C5
:1042D00021E02A8BCF84D888E988FA88CB82DC82D7
:1042E000ED82FE826B857C85E985FA85F093471423
:1042F000E093461470934914609348145093431408
:104300004093421490E0916090934514809344143C
:104310008FEF9FEF90933F1480933E148FEF90E0C8
:1043200090934114809340142E838B819C81AD81A6
:10433000BE8180938F1790939017A0939117B0939D
:104340009217CE5BDF4F0FB6F894DEBF0FBECDBF26
:10435000DF91CF911F910F91FF90EF90DF90CF9061
:10436000089580935B1658CF462F50E060E070E0D0
:104370002AE00C94F336CF93DF931F92CDB7DEB7CC
:10438000DC01ED91FC910288F389E02D41E050E0E1
:10439000BE016F5F7F4F199597FD03C0898190E043
:1043A00002C08FEF9FEF0F90DF91CF910895FC0136
:1043B000448555854115510551F0FB01248535850E
:1043C0002115310521F081E04217530709F080E003
:1043D0000895DC011C96ED91FC911D97309739F002
:1043E0008181811106C0808182958170089580E06D
:1043F000089581E00895DC01ED91FC91028CF38D2C
:10440000E02D199591E089270895EF92FF920F937F
:104410001F93CF93DF93EC01E881F981008CF18D3C
:10442000E02D19958823B9F08C859D857C012FEFAF
:10443000E21AF20A8C010A5F1F4FC0E0D0E0F701D8
:1044400081917F010E94222CC80FD91FE016F1062E
:10445000B1F7CE0102C080E090E0DF91CF911F91D3
:104460000F91FF90EF9008950F931F93CF93DF93D9
:104470001F92CDB7DEB78C01DC01ED91FC91008C71
:10448000F18DE02D1995882391F0D8011C96ED91BE
:10449000FC911D978181882351F041E050E0BE01DD
:1044A0006F5F7F4F0E949A1F898190E002C08FEF5B
:1044B0009FEF0F90DF91CF911F910F9108950F9370
:1044C0001F93CF93DF93EC018C010B5F1F4F88810B
:1044D0000E94B61D1992C017D107C9F7DF91CF917D
:1044E0001F910F910895CF93DF93EC01E881F9813B
:1044F000008CF18DE02D1995882339F08C859D85F0
:104500000196DF91CF910C945F22DF91CF910895B6
:10451000CF93DF93EC0188810E94B61DFE01CE018E
:10452000049621812193E817F907D9F71C82DF91BE
:10453000CF9108956F927F928F929F92AF92BF9288
:10454000CF92DF92EF92FF920F931F93CF93DF935F
:104550008C014B01EA01DC01ED91FC91008CF18DA5
:10456000E02D1995882309F470C0D8011C96ED91AF
:10457000FC911D978181882309F46AC07E018EE138
:10458000682EBE016E197F09680D791DD8011C9631
:10459000ED91FC911D97A70181810E949A1F6C01EA
:1045A000F801A484B584D50111967C90872D0E94D2
:1045B000222CC816D90681F5EC18FD08C501019614
:1045C0000E948822F801A485B5858C91282F30E0BF
:1045D0002F70629EF001639EF00D1124EF52FB4E8E
:1045E000918D94FF05C0982F907611F480688C937C
:1045F000D8011C96ED91FC911D97818181111FC0FE
:10460000808186FF05C010821D961C921E921C9709
:10461000CE018E199F091EC0B5E07B9EF0011124CA
:10462000EE5AFA4E808191818C0D9D1D918380837D
:10463000828193818C199D099383828304C0E11444
:10464000F10409F09ECFCE0105C08FEF9FEF02C0AD
:1046500080E090E0DF91CF911F910F91FF90EF905C
:10466000DF90CF90BF90AF909F908F907F906F9092
:1046700008958F929F92AF92BF92CF92DF92EF9266
:10468000FF92CF93DF9380915B16882309F4FAC1E0
:10469000D091B018D11164C089E30E94361E909168
:1046A0005B16992309F45AC0882309F457C0609116
:1046B0005C1670915D167B0126E0E20EF11CE114A0
:1046C00038E0F30628F07B0149EFE41A47E0F40AEA
:1046D00080E00E94131E60E08AE30E94102B90E0AD
:1046E00090935D1680935C1660E08AE30E94102B25
:1046F00020915C1630915D16382B30935D16209317
:104700005C1660E08AE30E94102BC82F60E08AE309
:104710000E94102BD82E60E08AE30E94102BC82E36
:1047200040E46EE180E80E94D61DC7FE15C080916E
:104730005C1690915D168115984070F4F0925F16AA
:10474000E0925E168C2F90E09D290497909361165D
:1047500080936016DFEF02C00E94942CD093B018B3
:10476000C091B018CC2309F420C181E08093B11826
:104770008C2F0E94222C9093B8188093B718892B05
:1047800009F40BC142E650E06BEB78E18C2F0E94FC
:104790009A1FC091C718D091C818C830D10509F028
:1047A00044C08091B0188093B2188091B71890914E
:1047B000B8180E979093B8188093B7182091D51811
:1047C0003091D618809146149091471482279327F0
:1047D00020913E1430913F1482239323892BC1F4FE
:1047E0002091D7183091D81880914814909149148D
:1047F00082279327209140143091411482239323E0
:10480000892B31F461EC78E185ED98E10E94E8397B
:1048100081E00E94B6158091B7189091B818892B45
:1048200009F4B7C00E94EE38B2C0C83086E0D8079D
:1048300009F0AFC08091B7189091B8181092B818CD
:104840001092B7188A9708F49CC08091CF18909165
:10485000D018811521E0920729F08115924009F4C2
:1048600074C08FC02091E1183091E21880914614F5
:10487000909147142817390709F083C02091E31855
:104880003091E41880914814909149142817390701
:1048900009F077C061ED78E187ED98E10E94E83991
:1048A00080E092E09093D0188093CF1886E0E1EDFD
:1048B000F8E1ABEDB8E101900D928A95E1F786E061
:1048C000E3E6F6E1A1EDB8E101900D928A95E1F7FA
:1048D00086E0E3E6F6E1A1ECB8E101900D928A955D
:1048E000E1F786E0EBEDF8E1ABEBB8E101900D927A
:1048F0008A95E1F78091D7189091D8189093E21893
:104900008093E1188091D9189091DA189093E41867
:104910008093E31880914614909147149093D8188F
:104920008093D71880914814909149149093DA1885
:104930008093D918D093C818C093C7188AE290E022
:104940009093B8188093B7181CC02091E11830914B
:10495000E21880914614909147142817390789F47A
:104960002091E3183091E4188091481490914914F3
:104970002817390731F461ED78E187ED98E10E945D
:10498000E8398091B7189091B818892B11F00E94DE
:104990005F2E8091B018882341F08091B11880FF7C
:1049A00004C00E94942C1092B0180E94813A6B01AE
:1049B0007C018091691690916A16A0916B16B09156
:1049C0006C1646015701881A990AAA0ABB0AC1ED5A
:1049D000D4E1D0933514C0933414B7FC02C082E004
:1049E00013C0209719F1EC8DFD8D3097D1F085859E
:1049F0009685A785B089A7019601281B390B4A0B1C
:104A00005B0B57FD13C083E00E94B6158091B71869
:104A10009091B818892B51F00E94EE380E945F2EB9
:104A200005C08D859E85AF85B889E5CF6E9635E149
:104A3000C934D30771F6B7FC25C04AEFC40ED11CA8
:104A4000E11CF11CC0926916D0926A16E0926B16B6
:104A5000F0926C16C3EAD4E1D0932E14C0932D14B7
:104A600085E00E94B6158091B7189091B818892BEF
:104A700021F089859A850E94092F2B9654E1CF3C1D
:104A8000D50751F7DF91CF91FF90EF90DF90CF9056
:104A9000BF90AF909F908F900895CF93DF93EC01DC
:104AA0000E943923EC85FD85309739F0808186FF9F
:104AB00006C081E09181911103C080E001C081E0D6
:104AC000DF91CF910895CF93DF93EC018C859D8585
:104AD000009781F0FC012081222361F001960E9461
:104AE0005F22EC85FD85808186FF02C0108202C0B6
:104AF000806280831D861C86DF91CF910C943923C0
:104B0000CF92DF92EF92FF920F931F93CF93DF9399
:104B10008C01EB016A01DC01ED91FC910488F589BF
:104B2000E02D1995EA80FB80AC81BD815C2D4D2D77
:104B30008091CF149091D01401968115EDE79E07D6
:104B400010F080E090E1782F692FE1EDF4E120E0B2
:104B5000243059F0318D332329F0C481D581C61713
:104B6000D70751F32F5F7E96F3CF9093D0148093A5
:104B7000CF141092511580E0E0E0F0E02EE1843097
:104B8000B9F0289FE0011124CF52DB4E998D91118D
:104B900003C0809351150FC0973031F4309729F03E
:104BA0003A8D928D931708F0EF018F5FFE01E7CFEA
:104BB00080935115EF01209719F480E090E039C0FF
:104BC00082E0898F80912F148C87809130148D879B
:104BD000809131148E87809132148F8780E092E02B
:104BE0009B8B8A8B9D8B8C8B81E090E0998B888B43
:104BF0001B8E8A8F83E0888F1E8A80E18F8B7D8356
:104C00006C835F834E83F982E882BB83AA83898D9C
:104C10008F7099F20E943923898D8F708330B9F794
:104C20008C8D9D8DD8011D969C938E931C9781E051
:104C300090E0DF91CF911F910F91FF90EF90DF9067
:104C4000CF900895CF92DF92EF92FF920F931F9330
:104C5000CF93DF93A0913414B09135145C96CD912D
:104C6000DC915D9750913314209749F556FF61C050
:104C7000EBE6F8E180E090E0208121111AC061E1CB
:104C8000689F9001699F300D1124E901C559D74EE5
:104C9000806188832459374E80E1F90111928A9509
:104CA000E9F7209709F445C05D96DC93CE935C97B5
:104CB00006C00196719684309105F1F63AC051FF15
:104CC00007C08091B7189091B818892B09F047C098
:104CD000888187FF0EC08F7788838091331482602C
:104CE00080933314E0913414F0913514818D8F7ECC
:104CF000818F80913314982F9071D92E84FF6FC0CB
:104D0000CE0106960E945F228981882309F46AC039
:104D1000E0913414F0913514848195819F838E83C2
:104D2000888180648883E0913414F0913514158E65
:104D3000148EE12CF12CB7018091B9189091BA181A
:104D40000E94463AF092B818E092B718DF91CF91DE
:104D50001F910F91FF90EF90DF90CF900895888181
:104D6000807609F0B5CF6E01F12CF60181818111B9
:104D700022C02091B7183091B8182115310519F0CB
:104D8000C9010E94171DF60181838823A1F00091BB
:104D9000B7181091B8182091B9183091BA182B5B38
:104DA00038414091B01860E070E00E94AD2CF4E012
:104DB000FF128ECF0CC0F3942FEFC21AD20A35E047
:104DC000F312D3CF8091B1188E7F8093B118E09108
:104DD0003414F0913514818D8061818F79CF87FFF4
:104DE00003C08ECF18829FCF80FF04C0CE010696ED
:104DF0000E948822809133148C7009F441C08E8106
:104E00008823F1F19F8191110FC0EB84FC84E114A0
:104E1000F10409F48ECF25E0829FF0011124EE5AAF
:104E2000FA4EF382E28206C00E94222C7C01892B7A
:104E300009F47FCF8091B9189091BA188B5B984193
:104E40008093AF18F701E80FF11DCF01EF2B19F098
:104E50000E94171DD82ED092B218DD2009F46BCF16
:104E60006091AF1870E0870120E030E04E818D2D19
:104E70000E94AD2C8091B11882608093B1185BCFF5
:104E8000888185FF56CF8E8181110BC01882E091F9
:104E90003414F0913514158E148E80E18093331400
:104EA00048CFE0913414F0913514818D8061818F69
:104EB00040CFAF92BF92CF92DF92EF92FF920F93CB
:104EC0001F93CF938C015B017A016A010E94392301
:104ED0000115110509F452C0F8018081807609F0AE
:104EE0004DC03796C1E08191811102C0C15004C00C
:104EF000CF5FC530C1F7C4E0F801EC0FF11D86812A
:104F000081110DC080E092E00E94171DF801EC0FA6
:104F1000F11D86838823D1F2F80114861386A70138
:104F20004C195D094A0D5B1DF80163857485960176
:104F3000EC0FF11D86810E948A2BC81AD90AF8014C
:104F400023853485820F931F948783871C141D0447
:104F50002CF4C43009F4BACFCF5FD4CF0E94813A89
:104F6000DC01CB010A96A11DB11DF801858796874A
:104F7000A787B08BC7018C199D0902C080E090E023
:104F8000CF911F910F91FF90EF90DF90CF90BF9046
:104F9000AF900895FC01848595850C945927CF9393
:104FA000DF931F92CDB7DEB7698341E050E0BE01C9
:104FB0006F5F7F4FFC01848595850E9459270F9074
:104FC000DF91CF910895CF92DF92FF920F931F93BD
:104FD000CF93DF93EC0161E08E810E94B9306AEFDC
:104FE00070E080E090E00E94E8310E94813A0885FC
:104FF00019852A853B85601771078207930720F47E
:10500000188619861A861B862C85211111C00885E1
:1050100019852A853B85DC01CB01801B910BA20BF6
:10502000B30B803D9740A105B10510F481E067C046
:105030001C860E94813A688779878A879B871C82B1
:105040001B821A821982188261E08E810E94E830E8
:1050500060E08E810E94B93064E170E080E090E011
:105060000E94E831F89461E08E810E94B9308BE9AA
:1050700090E00197F1F760E08E810E94E83010E047
:10508000F12C81E000E0C82ED12C8E810E9490305E
:105090008C159D0519F40F5F0F3FB9F78E810E94A3
:1050A00090300F3FA9F0143080F010FD0EC09F2DFE
:1050B000969596959695FE01E90FF11D9081990FB1
:1050C000073008F091609083F3941F5F1535D1F697
:1050D000789487E28F1590F42C8130E048818981A3
:1050E00090E0840F911D4A81840F911D4B81840FA4
:1050F000911D99272817390709F498CF80E0DF918F
:10510000CF911F910F91FF90DF90CF900895AF92B4
:10511000BF92CF92DF92EF92FF920F931F93CF93A4
:10512000DF93CDB7DEB7A8970FB6F894DEBF0FBEFA
:10513000CDBF7C015B016A0105E213E01A8309839C
:105140001B821C821D821E82CE0109960E94462D62
:105150001CA30BA31DA21EA21FA218A680918F172D
:1051600090919017A0919117B09192178B839C8387
:10517000AD83BE8318861F82AE014D5D5F4FB501C2
:10518000CE0101960E94223281309105B1F4D701FF
:10519000ED91FC910684F785E02D1E8F0D8F8DA17A
:1051A0009EA1AFA1B8A58F8F98A3A9A3BAA3A6016A
:1051B000BE01635E7F4FC7011995A8960FB6F8949C
:1051C000DEBF0FBECDBFDF91CF911F910F91FF903A
:1051D000EF90DF90CF90BF90AF900895DC011C96C8
:1051E000ED91FC911D97309731F08681978198273A
:1051F00089279827089580E090E00895CF93DF9362
:10520000FC01EB01AC85BD85109791F012969C9145
:10521000129713968C9113973C9111962C9145E21D
:1052200053E051834083328323839483858308C072
:1052300085E293E091838083128213821482158227
:10524000CF01DF91CF910895CF93DF931F92CDB718
:10525000DEB7DC01ED91FC91048CF58DE02D41E091
:1052600050E0BE016F5F7F4F1995181619061CF4A8
:10527000898190E002C08FEF9FEF0F90DF91CF9177
:105280000895CF93DF931F92CDB7DEB76983DC011A
:10529000ED91FC910280F381E02D41E050E0BE01F0
:1052A0006F5F7F4F19950F90DF91CF910895DC01CB
:1052B000ED91FC91048CF58DE02D199480E008951A
:1052C000CF93DF931F92CDB7DEB76983DC01ED91F9
:1052D000FC910280F381E02D41E050E0BE016F5F60
:1052E0007F4F19950F90DF91CF910895FB014150A9
:1052F0005109460F571FE417F50778F4208130E075
:10530000322F22276181260F311D820F931F8217B2
:10531000930708F401963296EECFE417F50751F49F
:10532000208130E0322F2227820F931F82179307AC
:1053300008F401960895CF93C62FBC0182E00E9425
:10534000131E60E085E30E94B9308AE78EBD0DB47C
:1053500007FEFDCFCEBD0DB407FEFDCF61E085E3B6
:10536000CF910C94B930BC0180E00E94131E60E024
:1053700085E30E94B9308AE38EBD0DB407FEFDCFF0
:105380001EBC0DB407FEFDCF61E085E30E94B9307D
:105390008EB50895CF93DF93EC010E94392389895C
:1053A0000E94B61D198ADF91CF910895FC012481D6
:1053B000358180E0843099F0E82FF0E091E0980F9B
:1053C000EE0FFF1FE75BFA4E40815181452B29F418
:1053D000809351153183208304C0892FEBCF8093B4
:1053E00051150C9439230F931F93CF93DF931F9282
:1053F000CDB7DEB78C010E943923F801818988235B
:1054000061F041E050E0BE016F5F7F4F0E949A1F44
:10541000019719F4898190E002C08FEF9FEF0F9000
:10542000DF91CF911F910F910895CF92DF92EF926C
:10543000FF920F931F93CF93DF9300D01F92CDB7AE
:10544000DEB78C016B017A010E943923F60182815B
:105450009381A481B581892B8A2B8B2BD1F0E11408
:10546000F104B9F0228133813A83298384819581C3
:105470009C838B83D8011C96ED91FC911D977E2D0A
:105480006F2D309729F1778366833183208393834F
:105490008283D8011C968D919C911D97892BA9F030
:1054A00052968C91811111C086E096E00E94171DE2
:1054B000F801828B2AE230E03787268721E090E0EE
:1054C000811101C020E0822F15C080E090E012C061
:1054D000CE0101960E94A71CD8011D969C938E9325
:1054E0001C97009791F39801225F3F4FFC01328790
:1054F0002187CFCF0F900F900F900F90DF91CF911A
:105500001F910F91FF90EF90DF90CF9008950F9330
:105510001F93CF93DF93EC018B018C859D85892BA5
:1055200041F460E070E080E090E00E94A71C9D875D
:105530008C87EC85FD85309751F0102701271027C7
:10554000158304832E96D287C18781E001C080E055
:10555000DF91CF911F910F910895CF93DF93DC01DD
:105560001C96ED91FC911D973097B1F0EC011582DE
:105570001482128611861D861C8689890E94B61D9A
:1055800088890E94B61D8A890E94B61D2E9686E0E3
:10559000FE0111928A95E9F7DF91CF9108959F92CC
:1055A000AF92BF92CF92DF92EF92FF920F931F9331
:1055B000CF93DF938C017B016A01CBE6D8E1A12C6C
:1055C000B12C8EE1982E888184FF18C090E08F70F6
:1055D000989EF001999EF00D1124EF52FB4E24810C
:1055E0003581F801848195812817390739F4A6019E
:1055F000B701CE010E945927A80EB91E6196F8E1A5
:10560000CF3ADF0701F7C501DF91CF911F910F91CD
:10561000FF90EF90DF90CF90BF90AF909F90089554
:10562000CF93DF93C82FD62F60E085E30E94B93077
:105630008D2F8F71C82BCEBD0DB407FEFDCF1EBCC4
:105640000DB407FEFDCFD7FD08C061E085E30E94E1
:10565000B9308EB5DF91CF9108951EBC0DB407FE11
:10566000FDCFF3CFCF92DF92EF92FF920F931F9374
:10567000CF93DF936C018B014130510579F4CB015D
:105680000E94B329682FC601DF91CF911F910F911E
:10569000FF90EF90DF90CF900C949B29EA01C60F0A
:1056A000D71F7E0181E0E81AF10880E10E94131EF5
:1056B000B60184E10E94131E0115184038F4E1146C
:1056C00088E0F80618F07E0188E0F81AB70182E158
:1056D0000E94131E40E16FE180EA0E94D61D40E265
:1056E0006FE180E80E94D61D6FE180E00E94102BE0
:1056F00085FF07C061E070E080E090E00E94E83143
:10570000F3CFDF91CF911F910F91FF90EF90DF903A
:10571000CF900895CF92DF92EF92FF920F931F9355
:10572000CF93DF936B018A01790125E0829FC0014D
:105730001124EC01CE5ADA4E688179816C0D7D1D01
:1057400082E00E94131E0A80DB81C02DCC19DD0986
:10575000EC16FD0608F4E70160E085E30E94B9302D
:105760008AE78EBD0DB407FEFDCFC8018C0F9D1FCB
:105770000817190741F0F80121918F012EBD0DB4D2
:1057800007FEFDCFF5CF61E085E30E94B930CE0181
:10579000DF91CF911F910F91FF90EF90DF90CF900D
:1057A0000895CF93DF93EC018A89882369F09A01E9
:1057B000AB016E857F850E948A2B2E853F85280F41
:1057C000391F3F872E8702C080E090E0DF91CF91A4
:1057D0000895EF92FF920F931F93CF93DF938B0166
:1057E0007A018F3FC9F095E0899FE0011124CE5ADC
:1057F000DA4E02C0CEE5D6E168817981600F711F73
:1058000080E00E94131E8A819B81801B910BE81609
:10581000F90688F4C7010FC060915E1670915F169B
:10582000600F711F611588E0780720F36F5F774084
:10583000CEE5D6E1E5CFDF91CF911F910F91FF909B
:10584000EF9008958823A1F090915B16992381F041
:105850008F3F29F48091601690916116089595E02C
:10586000899FF0011124EE5AFA4E828193810895A6
:1058700080E090E00895EF92FF920F931F93CF93F3
:10588000DF937C018B01EA010E943923F7018189B2
:10589000882339F1AE01B8010E949A1F8C01F701EB
:1058A000C1898C2F0E94222C0817190731F48C2FE4
:1058B0000E94B61DF701118A12C085E0C89FF00151
:1058C0001124EE5AFA4E80819181800F911F9183AD
:1058D000808382819381801B910B93838283C80193
:1058E00002C080E090E0DF91CF911F910F91FF9077
:1058F000EF900895CF93DF93EC010E9439238989BB
:10590000DF91CF910C94222CCF93DF93EC010E9476
:105910003923898981110E94B61D8889898B188A4B
:10592000DF91CF910C94222C60915C1670915D16E2
:105930006115710559F061507109611588E07807AA
:1059400010F060E070E060FF05C002C06FEF77E02C
:10595000615071098CE00C94131E0F931F93DB01AF
:10596000E42FA80190E0EF3FF9F065E0E69FF00139
:105970001124EE5AFA4E02C0EEE5F6E16081718123
:10598000620F731F25E0289FF001299FF00D11245D
:10599000EE5AFA4E808191818A0F9B1F0E94322B12
:1059A0001F910F910C94942C60915E1670915F166C
:1059B000620F731F6115E8E07E07F0F26F5F7740BA
:1059C000E1CFFF920F931F93CF93DF93E0912D14BC
:1059D000F0912E14C185D285209709F451C0809191
:1059E000331481FF31C0FA80F1102EC08091DD1890
:1059F0009091DE18978386838091D5189091D61860
:105A0000918380838091D7189091D8189383828353
:105A10008091E1189091E218982789279827089794
:105A200019F00E94171DF82EFA82FF2069F08F2DC1
:105A30000E94222C8C012AE230E04091B01860E0F4
:105A400070E08F2D0E94AD2C8091331483FF18C01D
:105A50008D818823A9F08C818093B2188AE280938B
:105A6000AF18688179816A5271098091B918909153
:105A7000BA18DF91CF911F910F91FF900C94463A85
:105A8000DF91CF911F910F91FF900895FC01138238
:105A9000128288EE93E0A0E0B0E084839583A68331
:105AA000B78381E393E091838083158614863E96C5
:105AB00086E0DF011D928A95E9F70895AF92BF92C3
:105AC000CF92DF92EF92FF920F931F93CF93DF93CA
:105AD000CDB7DEB7A8970FB6F894DEBF0FBECDBF27
